{
  "contractName": "RentalManagement",
  "abi": [
    {
      "anonymous": false,
      "inputs": [
        {
          "indexed": true,
          "internalType": "uint256",
          "name": "complaintId",
          "type": "uint256"
        },
        {
          "indexed": false,
          "internalType": "uint256",
          "name": "propertyId",
          "type": "uint256"
        }
      ],
      "name": "ComplaintResolved",
      "type": "event"
    },
    {
      "anonymous": false,
      "inputs": [
        {
          "indexed": true,
          "internalType": "uint256",
          "name": "complaintId",
          "type": "uint256"
        },
        {
          "indexed": false,
          "internalType": "uint256",
          "name": "propertyId",
          "type": "uint256"
        },
        {
          "indexed": true,
          "internalType": "address",
          "name": "complainant",
          "type": "address"
        }
      ],
      "name": "NewComplaint",
      "type": "event"
    },
    {
      "anonymous": false,
      "inputs": [
        {
          "indexed": true,
          "internalType": "uint256",
          "name": "propertyId",
          "type": "uint256"
        },
        {
          "indexed": false,
          "internalType": "string",
          "name": "location",
          "type": "string"
        }
      ],
      "name": "NewProperty",
      "type": "event"
    },
    {
      "anonymous": false,
      "inputs": [
        {
          "indexed": true,
          "internalType": "uint256",
          "name": "agreementId",
          "type": "uint256"
        },
        {
          "indexed": false,
          "internalType": "uint256",
          "name": "propertyId",
          "type": "uint256"
        },
        {
          "indexed": true,
          "internalType": "address",
          "name": "tenant",
          "type": "address"
        }
      ],
      "name": "NewRentalAgreement",
      "type": "event"
    },
    {
      "anonymous": false,
      "inputs": [
        {
          "indexed": true,
          "internalType": "address",
          "name": "user",
          "type": "address"
        },
        {
          "indexed": false,
          "internalType": "bool",
          "name": "isLandlord",
          "type": "bool"
        }
      ],
      "name": "NewUser",
      "type": "event"
    },
    {
      "inputs": [
        {
          "internalType": "uint256",
          "name": "",
          "type": "uint256"
        }
      ],
      "name": "agreements",
      "outputs": [
        {
          "internalType": "uint256",
          "name": "propertyId",
          "type": "uint256"
        },
        {
          "internalType": "address",
          "name": "tenant",
          "type": "address"
        },
        {
          "internalType": "uint256",
          "name": "startDate",
          "type": "uint256"
        },
        {
          "internalType": "uint256",
          "name": "endDate",
          "type": "uint256"
        },
        {
          "internalType": "bool",
          "name": "isActive",
          "type": "bool"
        }
      ],
      "stateMutability": "view",
      "type": "function"
    },
    {
      "inputs": [
        {
          "internalType": "uint256",
          "name": "",
          "type": "uint256"
        }
      ],
      "name": "complaints",
      "outputs": [
        {
          "internalType": "uint256",
          "name": "propertyId",
          "type": "uint256"
        },
        {
          "internalType": "string",
          "name": "description",
          "type": "string"
        },
        {
          "internalType": "address",
          "name": "complainant",
          "type": "address"
        },
        {
          "internalType": "bool",
          "name": "resolved",
          "type": "bool"
        }
      ],
      "stateMutability": "view",
      "type": "function"
    },
    {
      "inputs": [],
      "name": "nextAgreementId",
      "outputs": [
        {
          "internalType": "uint256",
          "name": "",
          "type": "uint256"
        }
      ],
      "stateMutability": "view",
      "type": "function"
    },
    {
      "inputs": [],
      "name": "nextComplaintId",
      "outputs": [
        {
          "internalType": "uint256",
          "name": "",
          "type": "uint256"
        }
      ],
      "stateMutability": "view",
      "type": "function"
    },
    {
      "inputs": [],
      "name": "nextPropertyId",
      "outputs": [
        {
          "internalType": "uint256",
          "name": "",
          "type": "uint256"
        }
      ],
      "stateMutability": "view",
      "type": "function"
    },
    {
      "inputs": [
        {
          "internalType": "uint256",
          "name": "",
          "type": "uint256"
        }
      ],
      "name": "properties",
      "outputs": [
        {
          "internalType": "string",
          "name": "location",
          "type": "string"
        },
        {
          "internalType": "uint256",
          "name": "rent",
          "type": "uint256"
        },
        {
          "internalType": "bool",
          "name": "isAvailable",
          "type": "bool"
        }
      ],
      "stateMutability": "view",
      "type": "function"
    },
    {
      "inputs": [
        {
          "internalType": "address",
          "name": "",
          "type": "address"
        }
      ],
      "name": "users",
      "outputs": [
        {
          "internalType": "string",
          "name": "name",
          "type": "string"
        },
        {
          "internalType": "string",
          "name": "contactInfo",
          "type": "string"
        },
        {
          "internalType": "bool",
          "name": "isLandlord",
          "type": "bool"
        }
      ],
      "stateMutability": "view",
      "type": "function"
    },
    {
      "inputs": [
        {
          "internalType": "string",
          "name": "_name",
          "type": "string"
        },
        {
          "internalType": "string",
          "name": "_contactInfo",
          "type": "string"
        },
        {
          "internalType": "bool",
          "name": "_isLandlord",
          "type": "bool"
        }
      ],
      "name": "addUser",
      "outputs": [],
      "stateMutability": "nonpayable",
      "type": "function"
    },
    {
      "inputs": [
        {
          "internalType": "string",
          "name": "_location",
          "type": "string"
        },
        {
          "internalType": "uint256",
          "name": "_rent",
          "type": "uint256"
        }
      ],
      "name": "addProperty",
      "outputs": [],
      "stateMutability": "nonpayable",
      "type": "function"
    },
    {
      "inputs": [
        {
          "internalType": "uint256",
          "name": "_propertyId",
          "type": "uint256"
        },
        {
          "internalType": "uint256",
          "name": "_startDate",
          "type": "uint256"
        },
        {
          "internalType": "uint256",
          "name": "_endDate",
          "type": "uint256"
        }
      ],
      "name": "startRentalAgreement",
      "outputs": [],
      "stateMutability": "nonpayable",
      "type": "function"
    },
    {
      "inputs": [
        {
          "internalType": "uint256",
          "name": "_propertyId",
          "type": "uint256"
        },
        {
          "internalType": "string",
          "name": "_description",
          "type": "string"
        }
      ],
      "name": "addComplaint",
      "outputs": [],
      "stateMutability": "nonpayable",
      "type": "function"
    },
    {
      "inputs": [
        {
          "internalType": "uint256",
          "name": "_complaintId",
          "type": "uint256"
        }
      ],
      "name": "resolveComplaint",
      "outputs": [],
      "stateMutability": "nonpayable",
      "type": "function"
    },
    {
      "inputs": [
        {
          "internalType": "uint256",
          "name": "_propertyId",
          "type": "uint256"
        }
      ],
      "name": "isPropertyAvailable",
      "outputs": [
        {
          "internalType": "bool",
          "name": "",
          "type": "bool"
        }
      ],
      "stateMutability": "view",
      "type": "function"
    },
    {
      "inputs": [
        {
          "internalType": "address",
          "name": "_tenant",
          "type": "address"
        }
      ],
      "name": "getActiveAgreement",
      "outputs": [
        {
          "internalType": "uint256",
          "name": "",
          "type": "uint256"
        }
      ],
      "stateMutability": "view",
      "type": "function"
    }
  ],
  "bytecode": "0x608060405234801561000f575f80fd5b50611dae8061001d5f395ff3fe608060405234801561000f575f80fd5b50600436106100e8575f3560e01c8063bcbfc2521161008a578063f54e1aef11610064578063f54e1aef14610277578063f760e14414610293578063f7b10808146102af578063ff5edf3a146102e1576100e8565b8063bcbfc252146101f5578063bd14de9614610225578063c9b99dab14610259576100e8565b8063654749b3116100c6578063654749b3146101585780637e69e91214610174578063931e84c6146101a7578063a87430ba146101c3576100e8565b806317c39000146100ec57806339500f341461011c578063606bcff91461013a575b5f80fd5b61010660048036038101906101019190611062565b6102fd565b60405161011391906110a5565b60405180910390f35b6101246103c3565b60405161013191906110a5565b60405180910390f35b6101426103c9565b60405161014f91906110a5565b60405180910390f35b610172600480360381019061016d91906110e8565b6103cf565b005b61018e60048036038101906101899190611138565b6105df565b60405161019e9493929190611216565b60405180910390f35b6101c160048036038101906101bc91906113b6565b6106bd565b005b6101dd60048036038101906101d89190611062565b61083b565b6040516101ec9392919061143e565b60405180910390f35b61020f600480360381019061020a9190611138565b610978565b60405161021c9190611481565b60405180910390f35b61023f600480360381019061023a9190611138565b6109a1565b60405161025095949392919061149a565b60405180910390f35b6102616109fe565b60405161026e91906110a5565b60405180910390f35b610291600480360381019061028c91906114eb565b610a04565b005b6102ad60048036038101906102a89190611138565b610b4e565b005b6102c960048036038101906102c49190611138565b610c6a565b6040516102d893929190611545565b60405180910390f35b6102fb60048036038101906102f69190611581565b610d22565b005b5f805f90505b6005548110156103b9578273ffffffffffffffffffffffffffffffffffffffff1660025f8381526020019081526020015f206001015f9054906101000a900473ffffffffffffffffffffffffffffffffffffffff1673ffffffffffffffffffffffffffffffffffffffff16148015610398575060025f8281526020019081526020015f206004015f9054906101000a900460ff165b156103a657809150506103be565b80806103b190611608565b915050610303565b505f90505b919050565b60045481565b60065481565b60015f8481526020019081526020015f206002015f9054906101000a900460ff1661042f576040517f08c379a000000000000000000000000000000000000000000000000000000000815260040161042690611699565b60405180910390fd5b818111610471576040517f08c379a000000000000000000000000000000000000000000000000000000000815260040161046890611727565b60405180910390fd5b5f60055f81548092919061048490611608565b9190505590506040518060a001604052808581526020013373ffffffffffffffffffffffffffffffffffffffff1681526020018481526020018381526020016001151581525060025f8381526020019081526020015f205f820151815f01556020820151816001015f6101000a81548173ffffffffffffffffffffffffffffffffffffffff021916908373ffffffffffffffffffffffffffffffffffffffff16021790555060408201518160020155606082015181600301556080820151816004015f6101000a81548160ff0219169083151502179055509050505f60015f8681526020019081526020015f206002015f6101000a81548160ff0219169083151502179055503373ffffffffffffffffffffffffffffffffffffffff16817f31f6627827ee7a80b5597620253553e779257a5bb55828573cd40dfced679c27866040516105d191906110a5565b60405180910390a350505050565b6003602052805f5260405f205f91509050805f01549080600101805461060490611772565b80601f016020809104026020016040519081016040528092919081815260200182805461063090611772565b801561067b5780601f106106525761010080835404028352916020019161067b565b820191905f5260205f20905b81548152906001019060200180831161065e57829003601f168201915b505050505090806002015f9054906101000a900473ffffffffffffffffffffffffffffffffffffffff16908060020160149054906101000a900460ff16905084565b5f835111610700576040517f08c379a00000000000000000000000000000000000000000000000000000000081526004016106f7906117ec565b60405180910390fd5b5f825111610743576040517f08c379a000000000000000000000000000000000000000000000000000000000815260040161073a90611854565b60405180910390fd5b60405180606001604052808481526020018381526020018215158152505f803373ffffffffffffffffffffffffffffffffffffffff1673ffffffffffffffffffffffffffffffffffffffff1681526020019081526020015f205f820151815f0190816107af9190611a0f565b5060208201518160010190816107c59190611a0f565b506040820151816002015f6101000a81548160ff0219169083151502179055509050503373ffffffffffffffffffffffffffffffffffffffff167ff4916a3c07a3a9cfba9a2938a12c30ef0aea39f0329d0298fcd00d5ec75791008260405161082e9190611481565b60405180910390a2505050565b5f602052805f5260405f205f91509050805f01805461085990611772565b80601f016020809104026020016040519081016040528092919081815260200182805461088590611772565b80156108d05780601f106108a7576101008083540402835291602001916108d0565b820191905f5260205f20905b8154815290600101906020018083116108b357829003601f168201915b5050505050908060010180546108e590611772565b80601f016020809104026020016040519081016040528092919081815260200182805461091190611772565b801561095c5780601f106109335761010080835404028352916020019161095c565b820191905f5260205f20905b81548152906001019060200180831161093f57829003601f168201915b505050505090806002015f9054906101000a900460ff16905083565b5f60015f8381526020019081526020015f206002015f9054906101000a900460ff169050919050565b6002602052805f5260405f205f91509050805f015490806001015f9054906101000a900473ffffffffffffffffffffffffffffffffffffffff1690806002015490806003015490806004015f9054906101000a900460ff16905085565b60055481565b5f825111610a47576040517f08c379a0000000000000000000000000000000000000000000000000000000008152600401610a3e90611b28565b60405180910390fd5b5f8111610a89576040517f08c379a0000000000000000000000000000000000000000000000000000000008152600401610a8090611bb6565b60405180910390fd5b5f60045f815480929190610a9c90611608565b91905055905060405180606001604052808481526020018381526020016001151581525060015f8381526020019081526020015f205f820151815f019081610ae49190611a0f565b50602082015181600101556040820151816002015f6101000a81548160ff021916908315150217905550905050807fca8eebf0cb58fbf81044271c490a7944587a35e57903625a9276d9fde6dfd20084604051610b419190611bd4565b60405180910390a2505050565b3373ffffffffffffffffffffffffffffffffffffffff1660035f8381526020019081526020015f206002015f9054906101000a900473ffffffffffffffffffffffffffffffffffffffff1673ffffffffffffffffffffffffffffffffffffffff1614610bef576040517f08c379a0000000000000000000000000000000000000000000000000000000008152600401610be690611c64565b60405180910390fd5b600160035f8381526020019081526020015f2060020160146101000a81548160ff021916908315150217905550807f740effa631b9521f63f237ef31a8d335239178f44b434e13c839a6a7a12e86c560035f8481526020019081526020015f205f0154604051610c5f91906110a5565b60405180910390a250565b6001602052805f5260405f205f91509050805f018054610c8990611772565b80601f0160208091040260200160405190810160405280929190818152602001828054610cb590611772565b8015610d005780601f10610cd757610100808354040283529160200191610d00565b820191905f5260205f20905b815481529060010190602001808311610ce357829003601f168201915b505050505090806001015490806002015f9054906101000a900460ff16905083565b60015f8381526020019081526020015f206002015f9054906101000a900460ff16610d82576040517f08c379a0000000000000000000000000000000000000000000000000000000008152600401610d7990611699565b60405180910390fd5b5f803373ffffffffffffffffffffffffffffffffffffffff1673ffffffffffffffffffffffffffffffffffffffff1681526020019081526020015f206002015f9054906101000a900460ff1680610e3757503373ffffffffffffffffffffffffffffffffffffffff1660025f8481526020019081526020015f206001015f9054906101000a900473ffffffffffffffffffffffffffffffffffffffff1673ffffffffffffffffffffffffffffffffffffffff16145b610e76576040517f08c379a0000000000000000000000000000000000000000000000000000000008152600401610e6d90611cf2565b60405180910390fd5b5f815111610eb9576040517f08c379a0000000000000000000000000000000000000000000000000000000008152600401610eb090611d5a565b60405180910390fd5b5f60065f815480929190610ecc90611608565b91905055905060405180608001604052808481526020018381526020013373ffffffffffffffffffffffffffffffffffffffff1681526020015f151581525060035f8381526020019081526020015f205f820151815f01556020820151816001019081610f399190611a0f565b506040820151816002015f6101000a81548173ffffffffffffffffffffffffffffffffffffffff021916908373ffffffffffffffffffffffffffffffffffffffff16021790555060608201518160020160146101000a81548160ff0219169083151502179055509050503373ffffffffffffffffffffffffffffffffffffffff16817ff058ea95b4766462bbb701c6f68feacd144fbdd654043df3dd1f79e0590a608285604051610fea91906110a5565b60405180910390a3505050565b5f604051905090565b5f80fd5b5f80fd5b5f73ffffffffffffffffffffffffffffffffffffffff82169050919050565b5f61103182611008565b9050919050565b61104181611027565b811461104b575f80fd5b50565b5f8135905061105c81611038565b92915050565b5f6020828403121561107757611076611000565b5b5f6110848482850161104e565b91505092915050565b5f819050919050565b61109f8161108d565b82525050565b5f6020820190506110b85f830184611096565b92915050565b6110c78161108d565b81146110d1575f80fd5b50565b5f813590506110e2816110be565b92915050565b5f805f606084860312156110ff576110fe611000565b5b5f61110c868287016110d4565b935050602061111d868287016110d4565b925050604061112e868287016110d4565b9150509250925092565b5f6020828403121561114d5761114c611000565b5b5f61115a848285016110d4565b91505092915050565b5f81519050919050565b5f82825260208201905092915050565b5f5b8381101561119a57808201518184015260208101905061117f565b5f8484015250505050565b5f601f19601f8301169050919050565b5f6111bf82611163565b6111c9818561116d565b93506111d981856020860161117d565b6111e2816111a5565b840191505092915050565b6111f681611027565b82525050565b5f8115159050919050565b611210816111fc565b82525050565b5f6080820190506112295f830187611096565b818103602083015261123b81866111b5565b905061124a60408301856111ed565b6112576060830184611207565b95945050505050565b5f80fd5b5f80fd5b7f4e487b71000000000000000000000000000000000000000000000000000000005f52604160045260245ffd5b61129e826111a5565b810181811067ffffffffffffffff821117156112bd576112bc611268565b5b80604052505050565b5f6112cf610ff7565b90506112db8282611295565b919050565b5f67ffffffffffffffff8211156112fa576112f9611268565b5b611303826111a5565b9050602081019050919050565b828183375f83830152505050565b5f61133061132b846112e0565b6112c6565b90508281526020810184848401111561134c5761134b611264565b5b611357848285611310565b509392505050565b5f82601f83011261137357611372611260565b5b813561138384826020860161131e565b91505092915050565b611395816111fc565b811461139f575f80fd5b50565b5f813590506113b08161138c565b92915050565b5f805f606084860312156113cd576113cc611000565b5b5f84013567ffffffffffffffff8111156113ea576113e9611004565b5b6113f68682870161135f565b935050602084013567ffffffffffffffff81111561141757611416611004565b5b6114238682870161135f565b9250506040611434868287016113a2565b9150509250925092565b5f6060820190508181035f83015261145681866111b5565b9050818103602083015261146a81856111b5565b90506114796040830184611207565b949350505050565b5f6020820190506114945f830184611207565b92915050565b5f60a0820190506114ad5f830188611096565b6114ba60208301876111ed565b6114c76040830186611096565b6114d46060830185611096565b6114e16080830184611207565b9695505050505050565b5f806040838503121561150157611500611000565b5b5f83013567ffffffffffffffff81111561151e5761151d611004565b5b61152a8582860161135f565b925050602061153b858286016110d4565b9150509250929050565b5f6060820190508181035f83015261155d81866111b5565b905061156c6020830185611096565b6115796040830184611207565b949350505050565b5f806040838503121561159757611596611000565b5b5f6115a4858286016110d4565b925050602083013567ffffffffffffffff8111156115c5576115c4611004565b5b6115d18582860161135f565b9150509250929050565b7f4e487b71000000000000000000000000000000000000000000000000000000005f52601160045260245ffd5b5f6116128261108d565b91507fffffffffffffffffffffffffffffffffffffffffffffffffffffffffffffffff8203611644576116436115db565b5b600182019050919050565b7f4d756c6b206d757361697420646567696c0000000000000000000000000000005f82015250565b5f61168360118361116d565b915061168e8261164f565b602082019050919050565b5f6020820190508181035f8301526116b081611677565b9050919050565b7f4269746973207461726968692c206261736c616e676963207461726968696e645f8201527f656e20736f6e7261206f6c6d616c696469720000000000000000000000000000602082015250565b5f61171160328361116d565b915061171c826116b7565b604082019050919050565b5f6020820190508181035f83015261173e81611705565b9050919050565b7f4e487b71000000000000000000000000000000000000000000000000000000005f52602260045260245ffd5b5f600282049050600182168061178957607f821691505b60208210810361179c5761179b611745565b5b50919050565b7f4973696d20626f73206f6c616d617a00000000000000000000000000000000005f82015250565b5f6117d6600f8361116d565b91506117e1826117a2565b602082019050919050565b5f6020820190508181035f830152611803816117ca565b9050919050565b7f496c65746973696d2062696c6769736920676572656b6c6900000000000000005f82015250565b5f61183e60188361116d565b91506118498261180a565b602082019050919050565b5f6020820190508181035f83015261186b81611832565b9050919050565b5f819050815f5260205f209050919050565b5f6020601f8301049050919050565b5f82821b905092915050565b5f600883026118ce7fffffffffffffffffffffffffffffffffffffffffffffffffffffffffffffffff82611893565b6118d88683611893565b95508019841693508086168417925050509392505050565b5f819050919050565b5f61191361190e6119098461108d565b6118f0565b61108d565b9050919050565b5f819050919050565b61192c836118f9565b6119406119388261191a565b84845461189f565b825550505050565b5f90565b611954611948565b61195f818484611923565b505050565b5b81811015611982576119775f8261194c565b600181019050611965565b5050565b601f8211156119c75761199881611872565b6119a184611884565b810160208510156119b0578190505b6119c46119bc85611884565b830182611964565b50505b505050565b5f82821c905092915050565b5f6119e75f19846008026119cc565b1980831691505092915050565b5f6119ff83836119d8565b9150826002028217905092915050565b611a1882611163565b67ffffffffffffffff811115611a3157611a30611268565b5b611a3b8254611772565b611a46828285611986565b5f60209050601f831160018114611a77575f8415611a65578287015190505b611a6f85826119f4565b865550611ad6565b601f198416611a8586611872565b5f5b82811015611aac57848901518255600182019150602085019450602081019050611a87565b86831015611ac95784890151611ac5601f8916826119d8565b8355505b6001600288020188555050505b505050505050565b7f4b6f6e756d20626f73206f6c616d617a000000000000000000000000000000005f82015250565b5f611b1260108361116d565b9150611b1d82611ade565b602082019050919050565b5f6020820190508181035f830152611b3f81611b06565b9050919050565b7f4b69726120626564656c6920736966697264616e20627579756b206f6c6d616c5f8201527f6964697200000000000000000000000000000000000000000000000000000000602082015250565b5f611ba060248361116d565b9150611bab82611b46565b604082019050919050565b5f6020820190508181035f830152611bcd81611b94565b9050919050565b5f6020820190508181035f830152611bec81846111b5565b905092915050565b7f59616c6e697a63612073696b61796574207361686962692073696b61796574695f8201527f20636f7a6562696c697200000000000000000000000000000000000000000000602082015250565b5f611c4e602a8361116d565b9150611c5982611bf4565b604082019050919050565b5f6020820190508181035f830152611c7b81611c42565b9050919050565b7f59616c6e697a6361206d756c6b207361686962692076657961206b69726163695f8201527f2073696b6179657420656b6c65796562696c6972000000000000000000000000602082015250565b5f611cdc60348361116d565b9150611ce782611c82565b604082019050919050565b5f6020820190508181035f830152611d0981611cd0565b9050919050565b7f53696b61796574206163696b6c616d61736920626f73206f6c616d617a0000005f82015250565b5f611d44601d8361116d565b9150611d4f82611d10565b602082019050919050565b5f6020820190508181035f830152611d7181611d38565b905091905056fea2646970667358221220410b5d9f5a1efaf101b8454212be1f64f63e7237309def7b4ba96344181456bd64736f6c63430008150033",
  "immutableReferences": {},
  "source": "// SPDX-License-Identifier: MIT\r\npragma solidity ^0.8.0;\r\n\r\n/**\r\n * @title Rental Management Contract\r\n * @dev Kirac ve mlk sahipleri iin kira ynetim sistemi\r\n */\r\ncontract RentalManagement {\r\n    // Kullanc yaps\r\n    struct User {\r\n        string name;\r\n        string contactInfo;\r\n        bool isLandlord;\r\n    }\r\n\r\n    // Mlk yaps\r\n    struct Property {\r\n        string location;\r\n        uint256 rent;\r\n        bool isAvailable;\r\n    }\r\n\r\n    // Szleme yaps\r\n    struct RentalAgreement {\r\n        uint256 propertyId;\r\n        address tenant;\r\n        uint256 startDate;\r\n        uint256 endDate;\r\n        bool isActive;\r\n    }\r\n\r\n    // ikayet yaps\r\n    struct Complaint {\r\n        uint256 propertyId;\r\n        string description;\r\n        address complainant;\r\n        bool resolved;\r\n    }\r\n\r\n    // Kullanclar ve mlkler iin mapping\r\n    mapping(address => User) public users;\r\n    mapping(uint256 => Property) public properties;\r\n    mapping(uint256 => RentalAgreement) public agreements;\r\n    mapping(uint256 => Complaint) public complaints;\r\n    \r\n    // Mlk ID ve Szleme ID sayalar\r\n    uint256 public nextPropertyId;\r\n    uint256 public nextAgreementId;\r\n    uint256 public nextComplaintId;\r\n\r\n    // Olaylar (Events)\r\n    event NewUser(address indexed user, bool isLandlord);\r\n    event NewProperty(uint256 indexed propertyId, string location);\r\n    event NewRentalAgreement(uint256 indexed agreementId, uint256 propertyId, address indexed tenant);\r\n    event NewComplaint(uint256 indexed complaintId, uint256 propertyId, address indexed complainant);\r\n    event ComplaintResolved(uint256 indexed complaintId, uint256 propertyId);\r\n\r\n    // Kullanc ekleme\r\n    function addUser(string memory _name, string memory _contactInfo, bool _isLandlord) public {\r\n        require(bytes(_name).length > 0, \"Isim bos olamaz\");\r\n        require(bytes(_contactInfo).length > 0, \"Iletisim bilgisi gerekli\");\r\n        users[msg.sender] = User(_name, _contactInfo, _isLandlord);\r\n        emit NewUser(msg.sender, _isLandlord);\r\n    }\r\n\r\n    // Mlk ekleme\r\n    function addProperty(string memory _location, uint256 _rent) public {\r\n        require(bytes(_location).length > 0, \"Konum bos olamaz\");\r\n        require(_rent > 0, \"Kira bedeli sifirdan buyuk olmalidir\");\r\n        uint256 propertyId = nextPropertyId++;\r\n        properties[propertyId] = Property(_location, _rent, true);\r\n        emit NewProperty(propertyId, _location);\r\n    }\r\n\r\n    // Szleme balatma\r\n    function startRentalAgreement(uint256 _propertyId, uint256 _startDate, uint256 _endDate) public {\r\n        require(properties[_propertyId].isAvailable, \"Mulk musait degil\");\r\n        require(_endDate > _startDate, \"Bitis tarihi, baslangic tarihinden sonra olmalidir\");\r\n        uint256 agreementId = nextAgreementId++;\r\n        agreements[agreementId] = RentalAgreement(_propertyId, msg.sender, _startDate, _endDate, true);\r\n        properties[_propertyId].isAvailable = false;\r\n        emit NewRentalAgreement(agreementId, _propertyId, msg.sender);\r\n    }\r\n\r\n    // ikayet ekleme\r\n    function addComplaint(uint256 _propertyId, string memory _description) public {\r\n        require(properties[_propertyId].isAvailable, \"Mulk musait degil\");\r\n        require(users[msg.sender].isLandlord || agreements[_propertyId].tenant == msg.sender, \"Yalnizca mulk sahibi veya kiraci sikayet ekleyebilir\");\r\n        require(bytes(_description).length > 0, \"Sikayet aciklamasi bos olamaz\");\r\n        uint256 complaintId = nextComplaintId++;\r\n        complaints[complaintId] = Complaint(_propertyId, _description, msg.sender, false);\r\n        emit NewComplaint(complaintId, _propertyId, msg.sender);\r\n    }\r\n\r\n    // ikayeti zld olarak iaretleme\r\n    function resolveComplaint(uint256 _complaintId) public {\r\n        require(complaints[_complaintId].complainant == msg.sender, \"Yalnizca sikayet sahibi sikayeti cozebilir\");\r\n        complaints[_complaintId].resolved = true;\r\n        emit ComplaintResolved(_complaintId, complaints[_complaintId].propertyId);\r\n    }\r\n\r\n    // Yardmc fonksiyonlar\r\n\r\n    // Mlkn durumunu kontrol etme\r\n    function isPropertyAvailable(uint256 _propertyId) public view returns (bool) {\r\n        return properties[_propertyId].isAvailable;\r\n    }\r\n\r\n    // Kiracnn aktif kiralama szlemesini sorgulama\r\n    function getActiveAgreement(address _tenant) public view returns (uint256) {\r\n        for (uint256 i = 0; i < nextAgreementId; i++) {\r\n            if (agreements[i].tenant == _tenant && agreements[i].isActive) {\r\n                return i;\r\n            }\r\n        }\r\n        return 0; // Aktif szleme bulunamad\r\n    }\r\n\r\n    // ...\r\n}",
  "sourcePath": "C:\\Users\\Trusan Acar\\Desktop\\Rent-House\\contracts\\RentalManagement.sol",
  "compiler": {
    "name": "solc",
    "version": "0.8.21+commit.d9974bed.Emscripten.clang"
  },
  "schemaVersion": "3.4.16",
  "updatedAt": "2023-11-12T19:01:40.280Z",
  "devdoc": {
    "details": "Kirac ve mlk sahipleri iin kira ynetim sistemi",
    "kind": "dev",
    "methods": {},
    "title": "Rental Management Contract",
    "version": 1
  },
  "userdoc": {
    "kind": "user",
    "methods": {},
    "version": 1
  }
}